{
  "address": "0xe6aEe1A1E4430B62aa26EB71E44902ec11FAf4D2",
  "abi": [
    {
      "inputs": [],
      "stateMutability": "nonpayable",
      "type": "constructor"
    },
    {
      "anonymous": false,
      "inputs": [
        {
          "indexed": true,
          "internalType": "address",
          "name": "owner",
          "type": "address"
        },
        {
          "indexed": true,
          "internalType": "address",
          "name": "approved",
          "type": "address"
        },
        {
          "indexed": true,
          "internalType": "uint256",
          "name": "tokenId",
          "type": "uint256"
        }
      ],
      "name": "Approval",
      "type": "event"
    },
    {
      "anonymous": false,
      "inputs": [
        {
          "indexed": true,
          "internalType": "address",
          "name": "owner",
          "type": "address"
        },
        {
          "indexed": true,
          "internalType": "address",
          "name": "operator",
          "type": "address"
        },
        {
          "indexed": false,
          "internalType": "bool",
          "name": "approved",
          "type": "bool"
        }
      ],
      "name": "ApprovalForAll",
      "type": "event"
    },
    {
      "anonymous": false,
      "inputs": [
        {
          "indexed": true,
          "internalType": "uint256",
          "name": "tokenId",
          "type": "uint256"
        },
        {
          "indexed": false,
          "internalType": "string",
          "name": "tokenURI",
          "type": "string"
        }
      ],
      "name": "CreatedSVGNFT",
      "type": "event"
    },
    {
      "anonymous": false,
      "inputs": [
        {
          "indexed": true,
          "internalType": "address",
          "name": "from",
          "type": "address"
        },
        {
          "indexed": true,
          "internalType": "address",
          "name": "to",
          "type": "address"
        },
        {
          "indexed": true,
          "internalType": "uint256",
          "name": "tokenId",
          "type": "uint256"
        }
      ],
      "name": "Transfer",
      "type": "event"
    },
    {
      "inputs": [
        {
          "internalType": "address",
          "name": "to",
          "type": "address"
        },
        {
          "internalType": "uint256",
          "name": "tokenId",
          "type": "uint256"
        }
      ],
      "name": "approve",
      "outputs": [],
      "stateMutability": "nonpayable",
      "type": "function"
    },
    {
      "inputs": [
        {
          "internalType": "address",
          "name": "owner",
          "type": "address"
        }
      ],
      "name": "balanceOf",
      "outputs": [
        {
          "internalType": "uint256",
          "name": "",
          "type": "uint256"
        }
      ],
      "stateMutability": "view",
      "type": "function"
    },
    {
      "inputs": [
        {
          "internalType": "string",
          "name": "_svg",
          "type": "string"
        }
      ],
      "name": "create",
      "outputs": [],
      "stateMutability": "nonpayable",
      "type": "function"
    },
    {
      "inputs": [
        {
          "internalType": "string",
          "name": "_imageURI",
          "type": "string"
        }
      ],
      "name": "formatTokenURI",
      "outputs": [
        {
          "internalType": "string",
          "name": "",
          "type": "string"
        }
      ],
      "stateMutability": "pure",
      "type": "function"
    },
    {
      "inputs": [
        {
          "internalType": "uint256",
          "name": "tokenId",
          "type": "uint256"
        }
      ],
      "name": "getApproved",
      "outputs": [
        {
          "internalType": "address",
          "name": "",
          "type": "address"
        }
      ],
      "stateMutability": "view",
      "type": "function"
    },
    {
      "inputs": [
        {
          "internalType": "address",
          "name": "owner",
          "type": "address"
        },
        {
          "internalType": "address",
          "name": "operator",
          "type": "address"
        }
      ],
      "name": "isApprovedForAll",
      "outputs": [
        {
          "internalType": "bool",
          "name": "",
          "type": "bool"
        }
      ],
      "stateMutability": "view",
      "type": "function"
    },
    {
      "inputs": [],
      "name": "name",
      "outputs": [
        {
          "internalType": "string",
          "name": "",
          "type": "string"
        }
      ],
      "stateMutability": "view",
      "type": "function"
    },
    {
      "inputs": [
        {
          "internalType": "uint256",
          "name": "tokenId",
          "type": "uint256"
        }
      ],
      "name": "ownerOf",
      "outputs": [
        {
          "internalType": "address",
          "name": "",
          "type": "address"
        }
      ],
      "stateMutability": "view",
      "type": "function"
    },
    {
      "inputs": [
        {
          "internalType": "address",
          "name": "from",
          "type": "address"
        },
        {
          "internalType": "address",
          "name": "to",
          "type": "address"
        },
        {
          "internalType": "uint256",
          "name": "tokenId",
          "type": "uint256"
        }
      ],
      "name": "safeTransferFrom",
      "outputs": [],
      "stateMutability": "nonpayable",
      "type": "function"
    },
    {
      "inputs": [
        {
          "internalType": "address",
          "name": "from",
          "type": "address"
        },
        {
          "internalType": "address",
          "name": "to",
          "type": "address"
        },
        {
          "internalType": "uint256",
          "name": "tokenId",
          "type": "uint256"
        },
        {
          "internalType": "bytes",
          "name": "_data",
          "type": "bytes"
        }
      ],
      "name": "safeTransferFrom",
      "outputs": [],
      "stateMutability": "nonpayable",
      "type": "function"
    },
    {
      "inputs": [
        {
          "internalType": "address",
          "name": "operator",
          "type": "address"
        },
        {
          "internalType": "bool",
          "name": "approved",
          "type": "bool"
        }
      ],
      "name": "setApprovalForAll",
      "outputs": [],
      "stateMutability": "nonpayable",
      "type": "function"
    },
    {
      "inputs": [
        {
          "internalType": "bytes4",
          "name": "interfaceId",
          "type": "bytes4"
        }
      ],
      "name": "supportsInterface",
      "outputs": [
        {
          "internalType": "bool",
          "name": "",
          "type": "bool"
        }
      ],
      "stateMutability": "view",
      "type": "function"
    },
    {
      "inputs": [
        {
          "internalType": "string",
          "name": "_svg",
          "type": "string"
        }
      ],
      "name": "svgToImageURI",
      "outputs": [
        {
          "internalType": "string",
          "name": "",
          "type": "string"
        }
      ],
      "stateMutability": "pure",
      "type": "function"
    },
    {
      "inputs": [],
      "name": "symbol",
      "outputs": [
        {
          "internalType": "string",
          "name": "",
          "type": "string"
        }
      ],
      "stateMutability": "view",
      "type": "function"
    },
    {
      "inputs": [
        {
          "internalType": "uint256",
          "name": "tokenId",
          "type": "uint256"
        }
      ],
      "name": "tokenURI",
      "outputs": [
        {
          "internalType": "string",
          "name": "",
          "type": "string"
        }
      ],
      "stateMutability": "view",
      "type": "function"
    },
    {
      "inputs": [
        {
          "internalType": "address",
          "name": "from",
          "type": "address"
        },
        {
          "internalType": "address",
          "name": "to",
          "type": "address"
        },
        {
          "internalType": "uint256",
          "name": "tokenId",
          "type": "uint256"
        }
      ],
      "name": "transferFrom",
      "outputs": [],
      "stateMutability": "nonpayable",
      "type": "function"
    }
  ],
  "transactionHash": "0x2b9b0f9c50db5378257c3b22c95c709cd4086300a8bd212f7a88b39a6173fbe0",
  "args": [],
  "numDeployments": 1,
  "solcInputHash": "d5ef4f260373d1922dcf789652b50cf0",
  "bytecode": "0x60806040523480156200001157600080fd5b506040518060400160405280600781526020017f535647204e4654000000000000000000000000000000000000000000000000008152506040518060400160405280600681526020017f7376674246540000000000000000000000000000000000000000000000000000815250816000908051906020019062000096929190620000c0565b508060019080519060200190620000af929190620000c0565b5050506000600781905550620001d5565b828054620000ce9062000170565b90600052602060002090601f016020900481019282620000f257600085556200013e565b82601f106200010d57805160ff19168380011785556200013e565b828001600101855582156200013e579182015b828111156200013d57825182559160200191906001019062000120565b5b5090506200014d919062000151565b5090565b5b808211156200016c57600081600090555060010162000152565b5090565b600060028204905060018216806200018957607f821691505b60208210811415620001a0576200019f620001a6565b5b50919050565b7f4e487b7100000000000000000000000000000000000000000000000000000000600052602260045260246000fd5b61310c80620001e56000396000f3fe608060405234801561001057600080fd5b50600436106101005760003560e01c806370a0823111610097578063b6a46b3b11610066578063b6a46b3b146102d1578063b88d4fde146102ed578063c87b56dd14610309578063e985e9c51461033957610100565b806370a082311461023757806371aee1931461026757806395d89b4114610297578063a22cb465146102b557610100565b806323b872dd116100d357806323b872dd1461019f57806330d871c6146101bb57806342842e0e146101eb5780636352211e1461020757610100565b806301ffc9a71461010557806306fdde0314610135578063081812fc14610153578063095ea7b314610183575b600080fd5b61011f600480360381019061011a9190611fb6565b610369565b60405161012c9190612487565b60405180910390f35b61013d61044b565b60405161014a91906124a2565b60405180910390f35b61016d60048036038101906101689190612049565b6104dd565b60405161017a9190612420565b60405180910390f35b61019d60048036038101906101989190611f7a565b610562565b005b6101b960048036038101906101b49190611e74565b61067a565b005b6101d560048036038101906101d09190612008565b6106da565b6040516101e291906124a2565b60405180910390f35b61020560048036038101906102009190611e74565b610773565b005b610221600480360381019061021c9190612049565b610793565b60405161022e9190612420565b60405180910390f35b610251600480360381019061024c9190611e0f565b610845565b60405161025e91906126c4565b60405180910390f35b610281600480360381019061027c9190612008565b6108fd565b60405161028e91906124a2565b60405180910390f35b61029f6109af565b6040516102ac91906124a2565b60405180910390f35b6102cf60048036038101906102ca9190611f3e565b610a41565b005b6102eb60048036038101906102e69190612008565b610a57565b005b61030760048036038101906103029190611ec3565b610add565b005b610323600480360381019061031e9190612049565b610b3f565b60405161033091906124a2565b60405180910390f35b610353600480360381019061034e9190611e38565b610c91565b6040516103609190612487565b60405180910390f35b60007f80ac58cd000000000000000000000000000000000000000000000000000000007bffffffffffffffffffffffffffffffffffffffffffffffffffffffff1916827bffffffffffffffffffffffffffffffffffffffffffffffffffffffff1916148061043457507f5b5e139f000000000000000000000000000000000000000000000000000000007bffffffffffffffffffffffffffffffffffffffffffffffffffffffff1916827bffffffffffffffffffffffffffffffffffffffffffffffffffffffff1916145b80610444575061044382610d25565b5b9050919050565b60606000805461045a90612974565b80601f016020809104026020016040519081016040528092919081815260200182805461048690612974565b80156104d35780601f106104a8576101008083540402835291602001916104d3565b820191906000526020600020905b8154815290600101906020018083116104b657829003601f168201915b5050505050905090565b60006104e882610d8f565b610527576040517f08c379a000000000000000000000000000000000000000000000000000000000815260040161051e90612624565b60405180910390fd5b6004600083815260200190815260200160002060009054906101000a900473ffffffffffffffffffffffffffffffffffffffff169050919050565b600061056d82610793565b90508073ffffffffffffffffffffffffffffffffffffffff168373ffffffffffffffffffffffffffffffffffffffff1614156105de576040517f08c379a00000000000000000000000000000000000000000000000000000000081526004016105d590612684565b60405180910390fd5b8073ffffffffffffffffffffffffffffffffffffffff166105fd610dfb565b73ffffffffffffffffffffffffffffffffffffffff16148061062c575061062b81610626610dfb565b610c91565b5b61066b576040517f08c379a000000000000000000000000000000000000000000000000000000000815260040161066290612564565b60405180910390fd5b6106758383610e03565b505050565b61068b610685610dfb565b82610ebc565b6106ca576040517f08c379a00000000000000000000000000000000000000000000000000000000081526004016106c1906126a4565b60405180910390fd5b6106d5838383610f9a565b505050565b606060006040518060400160405280601a81526020017f646174613a696d6167652f7376672b786d6c3b6261736536342c000000000000815250905060006107408460405160200161072c91906123b8565b6040516020818303038152906040526111f6565b9050600082826040516020016107579291906123cf565b6040516020818303038152906040529050809350505050919050565b61078e83838360405180602001604052806000815250610add565b505050565b6000806002600084815260200190815260200160002060009054906101000a900473ffffffffffffffffffffffffffffffffffffffff169050600073ffffffffffffffffffffffffffffffffffffffff168173ffffffffffffffffffffffffffffffffffffffff16141561083c576040517f08c379a0000000000000000000000000000000000000000000000000000000008152600401610833906125a4565b60405180910390fd5b80915050919050565b60008073ffffffffffffffffffffffffffffffffffffffff168273ffffffffffffffffffffffffffffffffffffffff1614156108b6576040517f08c379a00000000000000000000000000000000000000000000000000000000081526004016108ad90612584565b60405180910390fd5b600360008373ffffffffffffffffffffffffffffffffffffffff1673ffffffffffffffffffffffffffffffffffffffff168152602001908152602001600020549050919050565b606060006040518060400160405280601d81526020017f646174613a6170706c69636174696f6e2f6a736f6e3b6261736536342c000000815250905060008360405160200161094c91906123f3565b6040516020818303038152906040529050816109868260405160200161097291906123b8565b6040516020818303038152906040526111f6565b6040516020016109979291906123cf565b60405160208183030381529060405292505050919050565b6060600180546109be90612974565b80601f01602080910402602001604051908101604052809291908181526020018280546109ea90612974565b8015610a375780601f10610a0c57610100808354040283529160200191610a37565b820191906000526020600020905b815481529060010190602001808311610a1a57829003601f168201915b5050505050905090565b610a53610a4c610dfb565b8383611395565b5050565b610a6333600754611502565b6000610a6e826106da565b90506000610a7b826108fd565b9050610a8960075482611520565b6007547ff5acc616aa8ecd00e5d76674d7812f9c3c3571d662c9fba4499deefa6d0be12d82604051610abb91906124a2565b60405180910390a26001600754610ad291906127a9565b600781905550505050565b610aee610ae8610dfb565b83610ebc565b610b2d576040517f08c379a0000000000000000000000000000000000000000000000000000000008152600401610b24906126a4565b60405180910390fd5b610b3984848484611594565b50505050565b6060610b4a82610d8f565b610b89576040517f08c379a0000000000000000000000000000000000000000000000000000000008152600401610b8090612604565b60405180910390fd5b6000600660008481526020019081526020016000208054610ba990612974565b80601f0160208091040260200160405190810160405280929190818152602001828054610bd590612974565b8015610c225780601f10610bf757610100808354040283529160200191610c22565b820191906000526020600020905b815481529060010190602001808311610c0557829003601f168201915b505050505090506000610c336115f0565b9050600081511415610c49578192505050610c8c565b600082511115610c7e578082604051602001610c669291906123cf565b60405160208183030381529060405292505050610c8c565b610c8784611607565b925050505b919050565b6000600560008473ffffffffffffffffffffffffffffffffffffffff1673ffffffffffffffffffffffffffffffffffffffff16815260200190815260200160002060008373ffffffffffffffffffffffffffffffffffffffff1673ffffffffffffffffffffffffffffffffffffffff16815260200190815260200160002060009054906101000a900460ff16905092915050565b60007f01ffc9a7000000000000000000000000000000000000000000000000000000007bffffffffffffffffffffffffffffffffffffffffffffffffffffffff1916827bffffffffffffffffffffffffffffffffffffffffffffffffffffffff1916149050919050565b60008073ffffffffffffffffffffffffffffffffffffffff166002600084815260200190815260200160002060009054906101000a900473ffffffffffffffffffffffffffffffffffffffff1673ffffffffffffffffffffffffffffffffffffffff1614159050919050565b600033905090565b816004600083815260200190815260200160002060006101000a81548173ffffffffffffffffffffffffffffffffffffffff021916908373ffffffffffffffffffffffffffffffffffffffff160217905550808273ffffffffffffffffffffffffffffffffffffffff16610e7683610793565b73ffffffffffffffffffffffffffffffffffffffff167f8c5be1e5ebec7d5bd14f71427d1e84f3dd0314c0f7b2291e5b200ac8c7c3b92560405160405180910390a45050565b6000610ec782610d8f565b610f06576040517f08c379a0000000000000000000000000000000000000000000000000000000008152600401610efd90612544565b60405180910390fd5b6000610f1183610793565b90508073ffffffffffffffffffffffffffffffffffffffff168473ffffffffffffffffffffffffffffffffffffffff161480610f8057508373ffffffffffffffffffffffffffffffffffffffff16610f68846104dd565b73ffffffffffffffffffffffffffffffffffffffff16145b80610f915750610f908185610c91565b5b91505092915050565b8273ffffffffffffffffffffffffffffffffffffffff16610fba82610793565b73ffffffffffffffffffffffffffffffffffffffff1614611010576040517f08c379a000000000000000000000000000000000000000000000000000000000815260040161100790612644565b60405180910390fd5b600073ffffffffffffffffffffffffffffffffffffffff168273ffffffffffffffffffffffffffffffffffffffff161415611080576040517f08c379a000000000000000000000000000000000000000000000000000000000815260040161107790612504565b60405180910390fd5b61108b8383836116ae565b611096600082610e03565b6001600360008573ffffffffffffffffffffffffffffffffffffffff1673ffffffffffffffffffffffffffffffffffffffff16815260200190815260200160002060008282546110e6919061288a565b925050819055506001600360008473ffffffffffffffffffffffffffffffffffffffff1673ffffffffffffffffffffffffffffffffffffffff168152602001908152602001600020600082825461113d91906127a9565b92505081905550816002600083815260200190815260200160002060006101000a81548173ffffffffffffffffffffffffffffffffffffffff021916908373ffffffffffffffffffffffffffffffffffffffff160217905550808273ffffffffffffffffffffffffffffffffffffffff168473ffffffffffffffffffffffffffffffffffffffff167fddf252ad1be2c89b69c2b068fc378daa952ba7f163c4a11628f55a4df523b3ef60405160405180910390a4505050565b606060008251141561121957604051806020016040528060008152509050611390565b6000604051806060016040528060408152602001613097604091399050600060036002855161124891906127a9565b61125291906127ff565b600461125e9190612830565b9050600060208261126f91906127a9565b67ffffffffffffffff8111156112ae577f4e487b7100000000000000000000000000000000000000000000000000000000600052604160045260246000fd5b6040519080825280601f01601f1916602001820160405280156112e05781602001600182028036833780820191505090505b509050818152600183018586518101602084015b8183101561134f576003830192508251603f8160121c168501518253600182019150603f81600c1c168501518253600182019150603f8160061c168501518253600182019150603f81168501518253600182019150506112f4565b600389510660018114611369576002811461137957611384565b613d3d60f01b6002830352611384565b603d60f81b60018303525b50505050508093505050505b919050565b8173ffffffffffffffffffffffffffffffffffffffff168373ffffffffffffffffffffffffffffffffffffffff161415611404576040517f08c379a00000000000000000000000000000000000000000000000000000000081526004016113fb90612524565b60405180910390fd5b80600560008573ffffffffffffffffffffffffffffffffffffffff1673ffffffffffffffffffffffffffffffffffffffff16815260200190815260200160002060008473ffffffffffffffffffffffffffffffffffffffff1673ffffffffffffffffffffffffffffffffffffffff16815260200190815260200160002060006101000a81548160ff0219169083151502179055508173ffffffffffffffffffffffffffffffffffffffff168373ffffffffffffffffffffffffffffffffffffffff167f17307eab39ab6107e8899845ad3d59bd9653f200f220920489ca2b5937696c31836040516114f59190612487565b60405180910390a3505050565b61151c8282604051806020016040528060008152506116b3565b5050565b61152982610d8f565b611568576040517f08c379a000000000000000000000000000000000000000000000000000000000815260040161155f906125c4565b60405180910390fd5b8060066000848152602001908152602001600020908051906020019061158f929190611c33565b505050565b61159f848484610f9a565b6115ab8484848461170e565b6115ea576040517f08c379a00000000000000000000000000000000000000000000000000000000081526004016115e1906124c4565b60405180910390fd5b50505050565b606060405180602001604052806000815250905090565b606061161282610d8f565b611651576040517f08c379a000000000000000000000000000000000000000000000000000000000815260040161164890612664565b60405180910390fd5b600061165b6115f0565b9050600081511161167b57604051806020016040528060008152506116a6565b80611685846118a5565b6040516020016116969291906123cf565b6040516020818303038152906040525b915050919050565b505050565b6116bd8383611a52565b6116ca600084848461170e565b611709576040517f08c379a0000000000000000000000000000000000000000000000000000000008152600401611700906124c4565b60405180910390fd5b505050565b600061172f8473ffffffffffffffffffffffffffffffffffffffff16611c20565b15611898578373ffffffffffffffffffffffffffffffffffffffff1663150b7a02611758610dfb565b8786866040518563ffffffff1660e01b815260040161177a949392919061243b565b602060405180830381600087803b15801561179457600080fd5b505af19250505080156117c557506040513d601f19601f820116820180604052508101906117c29190611fdf565b60015b611848573d80600081146117f5576040519150601f19603f3d011682016040523d82523d6000602084013e6117fa565b606091505b50600081511415611840576040517f08c379a0000000000000000000000000000000000000000000000000000000008152600401611837906124c4565b60405180910390fd5b805181602001fd5b63150b7a0260e01b7bffffffffffffffffffffffffffffffffffffffffffffffffffffffff1916817bffffffffffffffffffffffffffffffffffffffffffffffffffffffff19161491505061189d565b600190505b949350505050565b606060008214156118ed576040518060400160405280600181526020017f30000000000000000000000000000000000000000000000000000000000000008152509050611a4d565b600082905060005b6000821461191f578080611908906129d7565b915050600a8261191891906127ff565b91506118f5565b60008167ffffffffffffffff811115611961577f4e487b7100000000000000000000000000000000000000000000000000000000600052604160045260246000fd5b6040519080825280601f01601f1916602001820160405280156119935781602001600182028036833780820191505090505b5090505b60008514611a46576001826119ac919061288a565b9150600a856119bb9190612a20565b60306119c791906127a9565b60f81b818381518110611a03577f4e487b7100000000000000000000000000000000000000000000000000000000600052603260045260246000fd5b60200101907effffffffffffffffffffffffffffffffffffffffffffffffffffffffffffff1916908160001a905350600a85611a3f91906127ff565b9450611997565b8093505050505b919050565b600073ffffffffffffffffffffffffffffffffffffffff168273ffffffffffffffffffffffffffffffffffffffff161415611ac2576040517f08c379a0000000000000000000000000000000000000000000000000000000008152600401611ab9906125e4565b60405180910390fd5b611acb81610d8f565b15611b0b576040517f08c379a0000000000000000000000000000000000000000000000000000000008152600401611b02906124e4565b60405180910390fd5b611b17600083836116ae565b6001600360008473ffffffffffffffffffffffffffffffffffffffff1673ffffffffffffffffffffffffffffffffffffffff1681526020019081526020016000206000828254611b6791906127a9565b92505081905550816002600083815260200190815260200160002060006101000a81548173ffffffffffffffffffffffffffffffffffffffff021916908373ffffffffffffffffffffffffffffffffffffffff160217905550808273ffffffffffffffffffffffffffffffffffffffff16600073ffffffffffffffffffffffffffffffffffffffff167fddf252ad1be2c89b69c2b068fc378daa952ba7f163c4a11628f55a4df523b3ef60405160405180910390a45050565b600080823b905060008111915050919050565b828054611c3f90612974565b90600052602060002090601f016020900481019282611c615760008555611ca8565b82601f10611c7a57805160ff1916838001178555611ca8565b82800160010185558215611ca8579182015b82811115611ca7578251825591602001919060010190611c8c565b5b509050611cb59190611cb9565b5090565b5b80821115611cd2576000816000905550600101611cba565b5090565b6000611ce9611ce484612704565b6126df565b905082815260208101848484011115611d0157600080fd5b611d0c848285612932565b509392505050565b6000611d27611d2284612735565b6126df565b905082815260208101848484011115611d3f57600080fd5b611d4a848285612932565b509392505050565b600081359050611d618161303a565b92915050565b600081359050611d7681613051565b92915050565b600081359050611d8b81613068565b92915050565b600081519050611da081613068565b92915050565b600082601f830112611db757600080fd5b8135611dc7848260208601611cd6565b91505092915050565b600082601f830112611de157600080fd5b8135611df1848260208601611d14565b91505092915050565b600081359050611e098161307f565b92915050565b600060208284031215611e2157600080fd5b6000611e2f84828501611d52565b91505092915050565b60008060408385031215611e4b57600080fd5b6000611e5985828601611d52565b9250506020611e6a85828601611d52565b9150509250929050565b600080600060608486031215611e8957600080fd5b6000611e9786828701611d52565b9350506020611ea886828701611d52565b9250506040611eb986828701611dfa565b9150509250925092565b60008060008060808587031215611ed957600080fd5b6000611ee787828801611d52565b9450506020611ef887828801611d52565b9350506040611f0987828801611dfa565b925050606085013567ffffffffffffffff811115611f2657600080fd5b611f3287828801611da6565b91505092959194509250565b60008060408385031215611f5157600080fd5b6000611f5f85828601611d52565b9250506020611f7085828601611d67565b9150509250929050565b60008060408385031215611f8d57600080fd5b6000611f9b85828601611d52565b9250506020611fac85828601611dfa565b9150509250929050565b600060208284031215611fc857600080fd5b6000611fd684828501611d7c565b91505092915050565b600060208284031215611ff157600080fd5b6000611fff84828501611d91565b91505092915050565b60006020828403121561201a57600080fd5b600082013567ffffffffffffffff81111561203457600080fd5b61204084828501611dd0565b91505092915050565b60006020828403121561205b57600080fd5b600061206984828501611dfa565b91505092915050565b61207b816128be565b82525050565b61208a816128d0565b82525050565b600061209b82612766565b6120a5818561277c565b93506120b5818560208601612941565b6120be81612b0d565b840191505092915050565b60006120d482612771565b6120de818561278d565b93506120ee818560208601612941565b6120f781612b0d565b840191505092915050565b600061210d82612771565b612117818561279e565b9350612127818560208601612941565b80840191505092915050565b600061214060328361278d565b915061214b82612b1e565b604082019050919050565b6000612163601c8361278d565b915061216e82612b6d565b602082019050919050565b600061218660568361279e565b915061219182612b96565b605682019050919050565b60006121a960248361278d565b91506121b482612c0b565b604082019050919050565b60006121cc60198361278d565b91506121d782612c5a565b602082019050919050565b60006121ef602c8361278d565b91506121fa82612c83565b604082019050919050565b600061221260388361278d565b915061221d82612cd2565b604082019050919050565b6000612235602a8361278d565b915061224082612d21565b604082019050919050565b600061225860298361278d565b915061226382612d70565b604082019050919050565b600061227b602e8361278d565b915061228682612dbf565b604082019050919050565b600061229e60028361279e565b91506122a982612e0e565b600282019050919050565b60006122c160208361278d565b91506122cc82612e37565b602082019050919050565b60006122e460318361278d565b91506122ef82612e60565b604082019050919050565b6000612307602c8361278d565b915061231282612eaf565b604082019050919050565b600061232a60298361278d565b915061233582612efe565b604082019050919050565b600061234d602f8361278d565b915061235882612f4d565b604082019050919050565b600061237060218361278d565b915061237b82612f9c565b604082019050919050565b600061239360318361278d565b915061239e82612feb565b604082019050919050565b6123b281612928565b82525050565b60006123c48284612102565b915081905092915050565b60006123db8285612102565b91506123e78284612102565b91508190509392505050565b60006123fe82612179565b915061240a8284612102565b915061241582612291565b915081905092915050565b60006020820190506124356000830184612072565b92915050565b60006080820190506124506000830187612072565b61245d6020830186612072565b61246a60408301856123a9565b818103606083015261247c8184612090565b905095945050505050565b600060208201905061249c6000830184612081565b92915050565b600060208201905081810360008301526124bc81846120c9565b905092915050565b600060208201905081810360008301526124dd81612133565b9050919050565b600060208201905081810360008301526124fd81612156565b9050919050565b6000602082019050818103600083015261251d8161219c565b9050919050565b6000602082019050818103600083015261253d816121bf565b9050919050565b6000602082019050818103600083015261255d816121e2565b9050919050565b6000602082019050818103600083015261257d81612205565b9050919050565b6000602082019050818103600083015261259d81612228565b9050919050565b600060208201905081810360008301526125bd8161224b565b9050919050565b600060208201905081810360008301526125dd8161226e565b9050919050565b600060208201905081810360008301526125fd816122b4565b9050919050565b6000602082019050818103600083015261261d816122d7565b9050919050565b6000602082019050818103600083015261263d816122fa565b9050919050565b6000602082019050818103600083015261265d8161231d565b9050919050565b6000602082019050818103600083015261267d81612340565b9050919050565b6000602082019050818103600083015261269d81612363565b9050919050565b600060208201905081810360008301526126bd81612386565b9050919050565b60006020820190506126d960008301846123a9565b92915050565b60006126e96126fa565b90506126f582826129a6565b919050565b6000604051905090565b600067ffffffffffffffff82111561271f5761271e612ade565b5b61272882612b0d565b9050602081019050919050565b600067ffffffffffffffff8211156127505761274f612ade565b5b61275982612b0d565b9050602081019050919050565b600081519050919050565b600081519050919050565b600082825260208201905092915050565b600082825260208201905092915050565b600081905092915050565b60006127b482612928565b91506127bf83612928565b9250827fffffffffffffffffffffffffffffffffffffffffffffffffffffffffffffffff038211156127f4576127f3612a51565b5b828201905092915050565b600061280a82612928565b915061281583612928565b92508261282557612824612a80565b5b828204905092915050565b600061283b82612928565b915061284683612928565b9250817fffffffffffffffffffffffffffffffffffffffffffffffffffffffffffffffff048311821515161561287f5761287e612a51565b5b828202905092915050565b600061289582612928565b91506128a083612928565b9250828210156128b3576128b2612a51565b5b828203905092915050565b60006128c982612908565b9050919050565b60008115159050919050565b60007fffffffff0000000000000000000000000000000000000000000000000000000082169050919050565b600073ffffffffffffffffffffffffffffffffffffffff82169050919050565b6000819050919050565b82818337600083830152505050565b60005b8381101561295f578082015181840152602081019050612944565b8381111561296e576000848401525b50505050565b6000600282049050600182168061298c57607f821691505b602082108114156129a05761299f612aaf565b5b50919050565b6129af82612b0d565b810181811067ffffffffffffffff821117156129ce576129cd612ade565b5b80604052505050565b60006129e282612928565b91507fffffffffffffffffffffffffffffffffffffffffffffffffffffffffffffffff821415612a1557612a14612a51565b5b600182019050919050565b6000612a2b82612928565b9150612a3683612928565b925082612a4657612a45612a80565b5b828206905092915050565b7f4e487b7100000000000000000000000000000000000000000000000000000000600052601160045260246000fd5b7f4e487b7100000000000000000000000000000000000000000000000000000000600052601260045260246000fd5b7f4e487b7100000000000000000000000000000000000000000000000000000000600052602260045260246000fd5b7f4e487b7100000000000000000000000000000000000000000000000000000000600052604160045260246000fd5b6000601f19601f8301169050919050565b7f4552433732313a207472616e7366657220746f206e6f6e20455243373231526560008201527f63656976657220696d706c656d656e7465720000000000000000000000000000602082015250565b7f4552433732313a20746f6b656e20616c7265616479206d696e74656400000000600082015250565b7f7b226e616d65223a2022535647204e4654222c20226465736372697074696f6e60008201527f223a2022416e204e4654206261736564206f6e20535647222c2022617474726960208201527f6275746573223a2022222c2022696d616765223a202200000000000000000000604082015250565b7f4552433732313a207472616e7366657220746f20746865207a65726f2061646460008201527f7265737300000000000000000000000000000000000000000000000000000000602082015250565b7f4552433732313a20617070726f766520746f2063616c6c657200000000000000600082015250565b7f4552433732313a206f70657261746f7220717565727920666f72206e6f6e657860008201527f697374656e7420746f6b656e0000000000000000000000000000000000000000602082015250565b7f4552433732313a20617070726f76652063616c6c6572206973206e6f74206f7760008201527f6e6572206e6f7220617070726f76656420666f7220616c6c0000000000000000602082015250565b7f4552433732313a2062616c616e636520717565727920666f7220746865207a6560008201527f726f206164647265737300000000000000000000000000000000000000000000602082015250565b7f4552433732313a206f776e657220717565727920666f72206e6f6e657869737460008201527f656e7420746f6b656e0000000000000000000000000000000000000000000000602082015250565b7f45524337323155524953746f726167653a2055524920736574206f66206e6f6e60008201527f6578697374656e7420746f6b656e000000000000000000000000000000000000602082015250565b7f227d000000000000000000000000000000000000000000000000000000000000600082015250565b7f4552433732313a206d696e7420746f20746865207a65726f2061646472657373600082015250565b7f45524337323155524953746f726167653a2055524920717565727920666f722060008201527f6e6f6e6578697374656e7420746f6b656e000000000000000000000000000000602082015250565b7f4552433732313a20617070726f76656420717565727920666f72206e6f6e657860008201527f697374656e7420746f6b656e0000000000000000000000000000000000000000602082015250565b7f4552433732313a207472616e73666572206f6620746f6b656e2074686174206960008201527f73206e6f74206f776e0000000000000000000000000000000000000000000000602082015250565b7f4552433732314d657461646174613a2055524920717565727920666f72206e6f60008201527f6e6578697374656e7420746f6b656e0000000000000000000000000000000000602082015250565b7f4552433732313a20617070726f76616c20746f2063757272656e74206f776e6560008201527f7200000000000000000000000000000000000000000000000000000000000000602082015250565b7f4552433732313a207472616e736665722063616c6c6572206973206e6f74206f60008201527f776e6572206e6f7220617070726f766564000000000000000000000000000000602082015250565b613043816128be565b811461304e57600080fd5b50565b61305a816128d0565b811461306557600080fd5b50565b613071816128dc565b811461307c57600080fd5b50565b61308881612928565b811461309357600080fd5b5056fe4142434445464748494a4b4c4d4e4f505152535455565758595a6162636465666768696a6b6c6d6e6f707172737475767778797a303132333435363738392b2fa26469706673582212202915d8421e5a3ec28337ef9dbd8360e22e87242b955f556c8f319b5c5c7fb2ae64736f6c63430008040033",
  "devdoc": {
    "kind": "dev",
    "methods": {
      "approve(address,uint256)": {
        "details": "See {IERC721-approve}."
      },
      "balanceOf(address)": {
        "details": "See {IERC721-balanceOf}."
      },
      "getApproved(uint256)": {
        "details": "See {IERC721-getApproved}."
      },
      "isApprovedForAll(address,address)": {
        "details": "See {IERC721-isApprovedForAll}."
      },
      "name()": {
        "details": "See {IERC721Metadata-name}."
      },
      "ownerOf(uint256)": {
        "details": "See {IERC721-ownerOf}."
      },
      "safeTransferFrom(address,address,uint256)": {
        "details": "See {IERC721-safeTransferFrom}."
      },
      "safeTransferFrom(address,address,uint256,bytes)": {
        "details": "See {IERC721-safeTransferFrom}."
      },
      "setApprovalForAll(address,bool)": {
        "details": "See {IERC721-setApprovalForAll}."
      },
      "supportsInterface(bytes4)": {
        "details": "See {IERC165-supportsInterface}."
      },
      "symbol()": {
        "details": "See {IERC721Metadata-symbol}."
      },
      "tokenURI(uint256)": {
        "details": "See {IERC721Metadata-tokenURI}."
      },
      "transferFrom(address,address,uint256)": {
        "details": "See {IERC721-transferFrom}."
      }
    },
    "version": 1
  },
  "userdoc": {
    "kind": "user",
    "methods": {},
    "version": 1
  },
  "storageLayout": {
    "storage": [
      {
        "astId": 25,
        "contract": "contracts/SVGNFT.sol:SVGNFT",
        "label": "_name",
        "offset": 0,
        "slot": "0",
        "type": "t_string_storage"
      },
      {
        "astId": 27,
        "contract": "contracts/SVGNFT.sol:SVGNFT",
        "label": "_symbol",
        "offset": 0,
        "slot": "1",
        "type": "t_string_storage"
      },
      {
        "astId": 31,
        "contract": "contracts/SVGNFT.sol:SVGNFT",
        "label": "_owners",
        "offset": 0,
        "slot": "2",
        "type": "t_mapping(t_uint256,t_address)"
      },
      {
        "astId": 35,
        "contract": "contracts/SVGNFT.sol:SVGNFT",
        "label": "_balances",
        "offset": 0,
        "slot": "3",
        "type": "t_mapping(t_address,t_uint256)"
      },
      {
        "astId": 39,
        "contract": "contracts/SVGNFT.sol:SVGNFT",
        "label": "_tokenApprovals",
        "offset": 0,
        "slot": "4",
        "type": "t_mapping(t_uint256,t_address)"
      },
      {
        "astId": 45,
        "contract": "contracts/SVGNFT.sol:SVGNFT",
        "label": "_operatorApprovals",
        "offset": 0,
        "slot": "5",
        "type": "t_mapping(t_address,t_mapping(t_address,t_bool))"
      },
      {
        "astId": 977,
        "contract": "contracts/SVGNFT.sol:SVGNFT",
        "label": "_tokenURIs",
        "offset": 0,
        "slot": "6",
        "type": "t_mapping(t_uint256,t_string_storage)"
      },
      {
        "astId": 1800,
        "contract": "contracts/SVGNFT.sol:SVGNFT",
        "label": "tokenCounter",
        "offset": 0,
        "slot": "7",
        "type": "t_uint256"
      }
    ],
    "types": {
      "t_address": {
        "encoding": "inplace",
        "label": "address",
        "numberOfBytes": "20"
      },
      "t_bool": {
        "encoding": "inplace",
        "label": "bool",
        "numberOfBytes": "1"
      },
      "t_mapping(t_address,t_bool)": {
        "encoding": "mapping",
        "key": "t_address",
        "label": "mapping(address => bool)",
        "numberOfBytes": "32",
        "value": "t_bool"
      },
      "t_mapping(t_address,t_mapping(t_address,t_bool))": {
        "encoding": "mapping",
        "key": "t_address",
        "label": "mapping(address => mapping(address => bool))",
        "numberOfBytes": "32",
        "value": "t_mapping(t_address,t_bool)"
      },
      "t_mapping(t_address,t_uint256)": {
        "encoding": "mapping",
        "key": "t_address",
        "label": "mapping(address => uint256)",
        "numberOfBytes": "32",
        "value": "t_uint256"
      },
      "t_mapping(t_uint256,t_address)": {
        "encoding": "mapping",
        "key": "t_uint256",
        "label": "mapping(uint256 => address)",
        "numberOfBytes": "32",
        "value": "t_address"
      },
      "t_mapping(t_uint256,t_string_storage)": {
        "encoding": "mapping",
        "key": "t_uint256",
        "label": "mapping(uint256 => string)",
        "numberOfBytes": "32",
        "value": "t_string_storage"
      },
      "t_string_storage": {
        "encoding": "bytes",
        "label": "string",
        "numberOfBytes": "32"
      },
      "t_uint256": {
        "encoding": "inplace",
        "label": "uint256",
        "numberOfBytes": "32"
      }
    }
  }
}